:020000040000FA
:10000000883B0020A9010000251400001114000005
:1000100000000000000000000000000000000000E0
:10002000000000000000000000000000351A000081
:10003000000000000000000049150000351B000012
:100040003515000071150000F51C0000C5180000F2
:100050007D1900000000000079130000A9120000C3
:100060008D1B00000D1C0000891C00005D170000A6
:10007000611B00003117000065130000D51200005D
:10008000091D0000111800005D150000C5010000E9
:10009000491A0000D11A0000E51A0000F91A000000
:1000A0000D1B0000211B00000000000000000000EC
:1000B0000000000000000000000000000000000040
:1000C00000F002F800F034F80CA030C8083824180A
:1000D0002D18A246671EAB4654465D46AC4201D180
:1000E00000F026F87E460F3E0FCCB646012633427E
:1000F00000D0FB1AA246AB463343184780AD000040
:10010000A0AD00000023002400250026103A01D3F2
:1001100078C1FBD8520700D330C100D50B607047BF
:100120001FB50098019900F010FF1FBD10B510BD5C
:1001300001F001F81146FFF7F3FF07F0FDFF01F0B2
:1001400019F803B4FFF7F2FF03BC00F0EDFF000065
:10015000401E00BF00BF00BF00BF00BF00BF00BF08
:1001600000BF00BF00BF00BF00BFF1D1704700005B
:1001700070B505460C46164602E00FCC0FC5103E82
:10018000102EFAD2082E02D303CC03C5083E042E4B
:1001900007D301CC01C5361F03E021782970641C08
:1001A0006D1C761EF9D270BD0A4802680F210A4301
:1001B00002600948804709480047FEE7FEE7FEE77E
:1001C000FEE7FEE7FEE7000005480649064A074B42
:1001D0007047000024050040491B0000C1000000DA
:1001E000C8060020883B00209C370020A037002054
:1001F00070B5064600F08CFE056830460B30C4082A
:10020000E400B44201D8002070BD68682A46002886
:1002100018D00168A14211D30B46214608318B4208
:1002200008D3436801194B6003681B1B0B605160C6
:10023000046001E041685160001D70BD02464068E5
:100240000028E6D12146284600F06AFE0028DCD1CD
:1002500070BD70B50446051F00F05AFE0068002C02
:100260001AD0446801E020466468002C01D0AC42FA
:10027000F9D301680A18AA4204D12A6805468918E8
:10028000016000E0456028684119A14205D161681C
:10029000696021684018286070BD6C6070BDF8B559
:1002A000042A2CD3830712D00B78491C0370401CFE
:1002B000521E83070BD00B78491C0370401C521E42
:1002C000830704D00B78491C0370401C521E8B0717
:1002D0009B0F05D0C91ADF002023DE1B08C90AE0E6
:1002E000FFF746FFF8BD1D4608C9FD401C46B44057
:1002F0002C4310C0121F042AF5D2F308C91A521E4B
:10030000F0D40B78491C0370401C521EEAD40B78C1
:10031000491C0370401C012AE4D409780170F8BD1F
:10032000D2B210B513029A1813049A1800F054FEB2
:1003300010BD0378C2781946437812061B02194390
:100340008378C0781B04194311430902090A000687
:1003500008437047002203098B4273D3030A8B4280
:1003600058D3030B8B423CD3030C8B4221D312E0B6
:1003700003460B437FD4002243088B4274D3030906
:100380008B425FD3030A8B4244D3030B8B4228D3A7
:10039000030C8B420DD3FF22090212BA030C8B42CD
:1003A00002D31212090265D0030B8B4219D300E06D
:1003B000090AC30B8B4201D3CB03C01A5241830BF2
:1003C0008B4201D38B03C01A5241430B8B4201D3A2
:1003D0004B03C01A5241030B8B4201D30B03C01ACB
:1003E0005241C30A8B4201D3CB02C01A5241830A45
:1003F0008B4201D38B02C01A5241430A8B4201D374
:100400004B02C01A5241030A8B4201D30B02C01A9D
:100410005241CDD2C3098B4201D3CB01C01A524104
:1004200083098B4201D38B01C01A524143098B428D
:1004300001D34B01C01A524103098B4201D30B0176
:10044000C01A5241C3088B4201D3CB00C01A52419B
:1004500083088B4201D38B00C01A524143088B4260
:1004600001D34B00C01A5241411A00D201465241F9
:10047000104670475DE0CA0F00D04942031000D318
:100480004042534000229C4603098B422DD3030A6D
:100490008B4212D3FC22890112BA030A8B420CD37D
:1004A000890192118B4208D3890192118B4204D3A6
:1004B00089013AD0921100E08909C3098B4201D326
:1004C000CB01C01A524183098B4201D38B01C01A60
:1004D000524143098B4201D34B01C01A52410309D7
:1004E0008B4201D30B01C01A5241C3088B4201D386
:1004F000CB00C01A524183088B4201D38B00C01A33
:100500005241D9D243088B4201D34B00C01A524109
:10051000411A00D20146634652415B10104601D396
:100520004042002B00D54942704763465B1000D320
:10053000404201B50020C046C04602BD704770472A
:1005400070470000F0B5F94D0C091E092C402E40F3
:100550002F468BB0A7437DD0B543FCD0002E7AD078
:10056000002CFCD00D465D40ED0F2543AC1BFF2554
:10057000AD0464190894C502440DC9022143500D0D
:10058000DC0204430120C00701430443D20201916D
:10059000200C110C00958C46010423468B430A91D4
:1005A00061460904E24D8A430991010A7D444919D3
:1005B0008039097805464D4301266D18F605751BEF
:1005C0006943C90C640B891C4C436418B5012C1B8E
:1005D000250C2E04B4434C434D43210C6918890962
:1005E0000591009DE90701D00121C90704912C461E
:1005F00001996708CD072F434C08059DE10B4D433A
:100600002D0C29466646754302950D4645432E46F8
:10061000029D7D1BB44100950D465D4301942C0C59
:100620002F040D465543AE462D0C3D4302950394D1
:100630007546049C2D04641B049406D2029C039D01
:10064000641C002675410395029401AC70CC009F98
:100650007D1B01E03EE162E1B44109040095079190
:1006600001940599A4086143090C0C464443650BA9
:10067000E7040C4666467443A646640B3C43039568
:1006800002947446049DE4042C1B049406D2029C3C
:10069000039D641C002675410395029401AC70CC47
:1006A000009F7D1BB44101940C465C430095650F8F
:1006B000E7000C465443A646640F3C43039502945E
:1006C0007446049DE4002C1B049406D2029C039DF6
:1006D000641C002675410395029401AC70CC009F08
:1006E0007D1BB441AE09AF06049DC900AD092F437F
:1006F000049DA406AD060495079D3443691807912F
:10070000059DE10B4D432D0C294666467543029528
:100710000D4645432E46029D7D1BB44100950D4676
:100720005D4301942C0C2F040D465543AE462D0C11
:100730003D43029503947546049C2D04641B049468
:1007400006D2029C039D641C002675410395029409
:1007500001AC70CC009F7D1BB44101948C050694C4
:10076000079C890A611800950791019C0599A408C6
:100770006143090C0D464543680BEF040D46644682
:1007800065436C0B3C43049FED047D1BAC4602D2D9
:100790000025641C6841009E019D371B8541084669
:1007A000584301950C46460FC5005443600F28433B
:1007B0006546E4002C1B02D20025401C6E41019DC1
:1007C0003F1AB5412846BD09800628438446A00942
:1007D000BF064E020699A40676180743079D00201F
:1007E00068410A99079019430020099B00906046D0
:1007F000FF1913434041E20F64003A43A446044604
:10080000D71A8C41A04203D90120009020463A46D5
:10081000C70F941840416246D20F224364466400D9
:100820000494009CBE466400D71AA446044602976E
:100830008C417746002F01D1A04204D96046401C6C
:100840008446029A2046C40FA64694184041049A52
:100850000546D20F224364466400D31A8D41714687
:10086000002901D1A84202D928461A46641C104327
:100870000122002800D0164361020020079B89193D
:1008800004465C410223002C02DB491813466441F4
:10089000089DCE0A2D145D194B056705E10A2C054C
:1008A0000D1908993E43C9076940002B08D09340B1
:1008B00006D30022761C5141002B01D17608760028
:1008C0001C4A002D43DB154241D0AA433FD030469D
:1008D0000BB0F0BD06180D464D41174C7642AC41A9
:1008E0001AD395181C465C41134A6D42A24113D39A
:1008F000012252054C00D4420AD15C00D4420BD0F4
:100900004B4002D592021143E2E749004908DFE774
:100910005940C90FC90718E000200849D8E7054821
:1009200001420DD10342F7D0F2E700000000FF07BB
:1009300070A700000000F07F0000E0FF0000F87FDB
:10094000114859400143C01241400020C0E7012333
:10095000089A9B069A4205DC032252078918C90FA0
:10096000C907B5E7052252078918074A1143D21271
:100970005140ADE770B515461C4602460B46284669
:100980002146FFF7DFFD70BDFFFFFF7F0346CA0270
:10099000400D10B510430A1504D00124E40720438C
:1009A000002A05DB0A4CA21A04D4D040FF2A00DD3D
:1009B000002010BD4A00002B01D0012000E00020E3
:1009C000101801225205D042F2D8C817C04310BDFA
:1009D0001E0400001F22030C02D10F22000402D0CB
:1009E000030E03D004E00020014670470002083ADD
:1009F000030F01D10001121F830F01D18000921E4D
:100A0000002801DB4000521E120551184205C01299
:100A1000411810467047C10FC90700D0404201225B
:100A200092071143D6E701218907D3E7F0B58B4C34
:100A30000F09254689B0BD437BD01D092646AE432C
:100A4000FAD00E465E402740F60F3E43254071D057
:100A500024012142FBD0FF24AD19A4042D1B0395D2
:100A600001252D05DB02DB0AC9022B43C90A2943F4
:100A70001E010901040F130F050121431701880B03
:100A8000820391432D098C46A90B1E438A0395438B
:100A9000B30B9A0396433F09BA0B9403A7430296FC
:100AA0002E467E430497B6464E19D7190C4601963A
:100AB000544305977E43371B7646BF1B3601B64627
:100AC000BE0B361900967646BC043719009C01D33C
:100AD000641C00946400002F01D001263443029E60
:100AE000049F754366467E430496760034196E0073
:100AF00034190094029C019E1C196643751BAE4676
:100B0000069465464519059C05956C435943754601
:100B10000891691A0191049E01465143A41B049156
:100B2000611A009C0791E10605D061090122114379
:100B300002E072E06EE06109089D00272C0A2D0694
:100B40006918049D7C412A0A2D066918019D62419D
:100B5000AC0DAD026D185441079A910D92025519D2
:100B60006141029A644658435443069B059A5A438E
:100B7000121A131B9A0E9B015B187A41010B000598
:100B8000C3185141220A200644195A419A4200D200
:100B9000491C01204002814203D315230226F6435B
:100BA00002E014230326F6432020C51AA940174665
:100BB000AF40DA400A4320460399D840091473181D
:100BC00019055118039A3843D2075140AC4009D057
:100BD0000122944006D30022401C5141002C01D137
:100BE000400840001E4A934212D301220398920605
:100BF000904207DB0520400709181A480143C0123C
:100C0000414004E0032040070818C10FC907002035
:100C100009B0F0BD0020F107FAE705180C464C4179
:100C200011486D42A04115D394181A465A410E48F6
:100C3000644290410ED301204A004005824209D30C
:100C40005A00824206D35940C90F084AC9070020FA
:100C50001143DDE700200649DAE700000000FF0746
:100C6000FE070000FFFFFF7F0000E0FF0000F07FB5
:100C70000000F87F70B505464800440D124B002077
:100C8000002C0AD0634008D09A4206DA6642B2428B
:100C900003DD12054019514170BD002C08D0002B16
:100CA00009D0C90FC907002AF6DB084A114370BDF5
:100CB000C90FC90770BD28460A03104302D000209F
:100CC000034970BD284670BDFF0700000000F07F9B
:100CD0000000F87FF0B5FF252D04C609C209FF27E3
:100CE00004462E400137CB093E4348402A402B4062
:100CF0000746002A6BD0002B69D0AA4267D0AB42CE
:100D000065D0002800DA32460125ED0529432C4341
:100D100009022002090AD21A4B0C7F24E31A434C21
:100D2000000A7C44E35C7D242404121914145B0043
:100D3000A218884201D3521C00E0400049420C46F0
:100D40005C4324115C43DB016415E318040A5C4333
:100D5000C502200D0C4644436419250A5D43230354
:100D6000EC0C0D46654300030019EB184C42A342FE
:100D700001D35B18401CD4052018002B07D05B0062
:100D8000C91804D3401C002901D1400840003F216C
:100D900089048A4209D3002A08DC1106090F04D00D
:100DA000032149074018C00FC007F0BD01224100D0
:100DB000120689187F2252069142F6D20521490770
:100DC000C84201D59010F0BDFF20C005F0BD002F36
:100DD00000DA32461648AA4207D2AB4205D21902BF
:100DE000090E17D0F80FC007F0BDFF2563002D06D0
:100DF000AB42F9D84900A942F6D8AB4201D1A94289
:100E0000F2D0A94201D1002101E061004908D005DA
:100E10000843F0BD1102090EFBD0FF200243D005AC
:100E2000F0BD0A460146104654E700007AA00000D3
:100E30000000C07F10B501469E240002CA15A3071A
:100E4000002A02D01843002A04DBA21A002A0CDD73
:100E5000D04010BD1206120E01D140004008A21A67
:100E600003D4D04040420028F3DDFF2248001206A0
:100E7000904201D9002010BDC817C043584010BD92
:100E80000102C21504D00123DB071943002A0ADB43
:100E90009E239A1A02D40846D0407047FF22410090
:100EA0001206914201D900207047C017C043704715
:100EB0001F22030C02D10F2200041CD0030E01D10B
:100EC0000002083A030F01D10001121F830F01D164
:100ED0008000921E002801DB4000521ED2055118EE
:100EE000021251181922904004D3491C002801D144
:100EF0004908490008467047C10FC90700D0404261
:100F0000012292071143D3E701218907D0E70000AE
:100F10000048704770060020704770477047704760
:100F200038B504460A4600206946C046C046002837
:100F300005D002462046009900F098F8012038BDFF
:100F400010B5012000F0B2F810BDF8B5C046C0469B
:100F5000054600200C461020C0460646A819A042AF
:100F60000DD9324669460020C046C046070001D16F
:100F700000F09CF80098A04200D00546C419FFF785
:100F8000C7FFF61D07460560F008C0004619284651
:100F900000F008F8B44204D031463868A21B00F0D3
:100FA00065F8F8BD00210160416080607047102045
:100FB000704710B500F080F800F072F810BD01E045
:100FC00004C0091F0429FBD28B0701D50280801CB5
:100FD000C90700D00270704700290BD0C30702D0A8
:100FE0000270401C491E022904D3830702D50280E7
:100FF000801C891EE3E70022EEE70022DFE7000005
:1010000010B5FF231B0644009C421DD84C009C4297
:101010001AD80346124A0B4307D4401A02D3EFF3FF
:10102000008010BDEFF3008010BD081A06D2EFF368
:10103000008001219043C907084302E0EFF30080DC
:10104000904380F3008810BD0D231B041A4204D086
:101050001146002000F048F810BD00F05DF810BD0A
:1010600000000090004870476806002010B5034655
:10107000406801E003464068002801D08842F9D367
:101080001868C3188B4206D0CB1CD808C000001DBE
:10109000411A521A0146081D0A60FFF7DAF810BD1E
:1010A00010B5002801D000F03FF810BD10B500F0D9
:1010B00081F8FFF7F5FF10BD10B5002102A000F088
:1010C0005FF8012010BD00005349475056464E3A84
:1010D0002050757265207669727475616C20666E39
:1010E0002063616C6C656400CA0211D54A03520F1B
:1010F000002A04D0C803C043012188407047054A34
:10110000EFF3008108010009104380F30088704765
:10111000002070470000003010B5024800F072F85F
:1011200010BD00000000C07F01491820ABBEFEE7E3
:101130002600020070477546FFF794FFAE46050093
:1011400069465346C008C000854618B020B5FFF771
:101150003BF860BC00274908B6460026C0C5C0C59C
:10116000C0C5C0C5C0C5C0C5C0C5C0C5403D49009B
:101170008D4670470446C046C0462046FEF7E1FF54
:1011800070B505460C460A2000E06D1C00F069F8B9
:10119000002D06D028780028F7D102E0641C00F06A
:1011A00060F8002C02D020780028F7D10A2000F047
:1011B00058F870BD10B5012805D0002103A0FFF735
:1011C000DFFF012010BD09A1F8E700005349475295
:1011D000544D454D3A204F7574206F662068656107
:1011E00070206D656D6F7279000000003A204865CF
:1011F0006170206D656D6F727920636F72727570AA
:101200007465640010B50C461107090F092904D054
:101210000A290AD008290CD104E011460820FFF75A
:1012200063FF06E0510606D501E0510601D5012015
:10123000C007214610BDD10607D501010909CC0818
:101240004907000E0006044309E0410F2002490748
:10125000000A0143200E00061D22D1410143084629
:10126000E7E708B5694608700320ABBE08BD30B596
:101270008C180278401C13071B0F01D10378401C07
:10128000120906D10278401C03E00578401C0D705D
:10129000491C5B1EF9D101E00B70491C521EFBD1A9
:1012A000A142E6D3002030BD0748006801280AD1DA
:1012B00006484068C00706D00548C16E002901D025
:1012C0001B200847FEE77047007100400073004094
:1012D000A801002070B5204E3068204C204D012818
:1012E00002D16068C0070BD17068012802D1606824
:1012F000800705D4B068012807D16068400704D58D
:10130000696E002905D0392088473068012801D04E
:1013100005E0FEE76068C00701D0012000E0002082
:101320007168012904D16168890701D5012100E0B4
:1013300000210843B168012904D16168490701D53A
:10134000012100E00021084304D0A96E002902D049
:101350003A20884770BDFEE700F1004000F30040EE
:10136000280200200348016E002901D038200847D8
:10137000FEE700002802002070B5224E3068224DA2
:10138000224C012807D16868C00704D0A16D00294C
:1013900005D0162088477068012801D008E0FEE7D4
:1013A0006868800704D5E16D002905D017208847BB
:1013B000B068012801D008E0FEE76868400704D55E
:1013C000216E002905D018208847F068012801D037
:1013D00008E0FEE76868000704D5616E00290FD0B9
:1013E0001920884707484030C06B012807D168683A
:1013F000002804DAA16E002903D01A20884770BDA6
:10140000FEE7FEE70061004000630040A801002005
:1014100003484168002901D001200847FEE7000089
:10142000A801002003480168002901D000200847D6
:10143000FEE70000A801002010B506F0ABFF10BDCC
:10144000F7B50746002401202E49000415468860A0
:101450002D4EB078002802D02C48FFF7EDFF002F6A
:1014600002D12B48FFF7E8FF7068002802D0294816
:10147000FFF7E2FF284677600127274D002820D09C
:10148000012828D0022824D02448FFF7D5FF24487B
:10149000B770002101600199611889B229602E6836
:1014A00020494F606D680068002802D01E48FFF791
:1014B000C3FFA64211D3A54201D3B5421CD31B489A
:1014C00018E0184847606C680760154900200860FC
:1014D000DDE7AC68DBE72C68D9E7B54201D2012033
:1014E00000E00020AC4201D8012100E00021884248
:1014F00002D10F48FFF7A0FF012002490004486015
:1015000003B0F0BD00A300404401002074000400BB
:10151000760004007700040040A500408A00040023
:1015200040A1004040A000409C000400B100040025
:10153000CA00040003488169002901D00620084739
:10154000FEE70000A80100200348C168002901D07F
:1015500003200847FEE70000A80100200348016FB0
:10156000002901D03C200847FEE7000028020020A7
:10157000F8B55F4C20696778401C2061607D0028C9
:1015800002D05C48FFF758FF204622785A4D0024CD
:101590005A495B4E032A3FD1CA68002A3CD0012F2A
:1015A00003D0022F2FD057489EE00746006903283A
:1015B00002D05548FFF740FF02203870B969491C36
:1015C000B96152490C60C11EA960514908604B487D
:1015D000C460046004614460032179707C603C75E0
:1015E0003268117D00290AD04A498B68BB75C461F5
:1015F000494B01209861494B042098608C60D06869
:1016000000283AD1F8BD0069012802D04448FFF70C
:1016100013FF08F0F5FAF8BD032F64D0012F2ED088
:10162000022FF6D042783F4B1201D218137B0027CD
:10163000002B03D0CB68002B00D00127927A334BCC
:1016400002701C60032A48D00022D243AA60304BAB
:1016500002221A60CC60032242700C600C614C6064
:101660004460047530680069002800D08047002F6E
:10167000D1D0306880680028CDD08047F8BD02699D
:10168000012A18D0022AF9D1CC600C610C601F49E4
:101690000C60111FA960082169600321017044607A
:1016A000047530680069002800D080473068806881
:1016B0000028E2D1F8BD0C604C600021C943A9604C
:1016C000012169603168097D002902D0134A042193
:1016D00051601549C0684860F8BD0822D243AA602D
:1016E00008226A60B9E71148FFF7A6FEF8BD0000BE
:1016F0005403002090010A00001300400011004034
:101700004C010020A9010A009F010A0000120040BC
:1017100080E200E0401500400010004000F501406C
:10172000A4010A00F0AC000000150040D6010A0038
:101730000748006801280AD106484068C00706D05B
:101740000548C16D002901D037200847FEE77047E2
:1017500000D1004000D300402802002070B5294E7F
:101760003068294D294C012807D16868C00704D08A
:10177000A16A002905D02A2088477068012801D075
:1017800008E0FEE76868800704D5E16A002907D011
:101790002B2088471B4E40363068012801D008E0D6
:1017A000FEE76868C00304D5216B002905D02C2012
:1017B00088477068012801D008E0FEE76868800368
:1017C00004D5616B002905D02D208847B068012819
:1017D00001D008E0FEE76868400304D5A16B00294A
:1017E0000DD02E208847F068012807D168680003D3
:1017F00004D5E16B002903D02F20884770BDFEE798
:10180000FEE7000000B1004000B3004028020020C5
:1018100070B5294E3068294D294C012807D16868D8
:10182000C00704D0216C002905D03020884770689B
:10183000012801D008E0FEE76868800704D5616CE4
:10184000002907D0312088471B4E403630680128D8
:1018500001D008E0FEE76868C00304D5A16C002948
:1018600005D0322088477068012801D008E0FEE7E3
:101870006868800304D5E16C002905D033208847CF
:10188000B068012801D008E0FEE76868400304D58D
:10189000216D00290DD034208847F068012807D138
:1018A0006868000304D5616D002903D0352088479E
:1018B00070BDFEE7FEE7000000110140001301408B
:1018C0002802002070B529480068294E294D2A4C6D
:1018D00005280BD0B068012807D16868400704D5F7
:1018E000A16A002941D00A20884770BD706801288C
:1018F00007D16868800704D5216B002905D00C202A
:101900008847B068012801D008E0FEE76868400712
:1019100004D5616B002905D00D208847F0690128A6
:1019200001D008E0FEE76868000604D5A16B002935
:1019300005D00E208847706A012801D008E0FEE734
:101940006868800504D5E16B00290CD00F2088471A
:10195000B06B0128C9D168684004C6D5216C002944
:1019600002D01020C0E7FEE7FEE7FEE700350040AA
:101970000031004000330040A801002070B5294824
:101980000068294E294D2A4C05280BD0B068012843
:1019900007D16868400704D5E16A002941D00B20CF
:1019A000884770BD7068012807D16868800704D532
:1019B000616C002905D011208847B068012801D04A
:1019C00008E0FEE76868400704D5A16C002905D04F
:1019D00012208847F069012801D008E0FEE7686816
:1019E000000604D5E16C002905D013208847706AF1
:1019F000012801D008E0FEE76868800504D5216D64
:101A000000290CD014208847B06B0128C9D1686820
:101A10004004C6D5616D002902D01520C0E7FEE75D
:101A2000FEE7FEE700450040004100400043004063
:101A3000A801002003488168002901D0022008473E
:101A4000FEE70000A8010020F8B5204D2C468034A8
:101A5000012080F310886068002832D020680C21B3
:101A6000484340190279310A090211434279FF23A0
:101A70001B02120299431A40114382791B0212047D
:101A800099431A401143C2790E02360A11060E43D9
:101A900081688289C08997B2000407436068401E4C
:101AA00060602068401C206020680A2801D3002064
:101AB0002060002080F310882B683A463046984713
:101AC000C6E7002080F31088F8BD000078030020EE
:101AD0000348816F002901D03E200847FEE700003F
:101AE000280200200348C16F002901D03F20084789
:101AF000FEE700002802002003480168002901D009
:101B000040200847FEE70000A80200200348416883
:101B1000002901D041200847FEE70000A80200206C
:101B200003488168002901D042200847FEE70000F1
:101B3000A802002003480169002901D004200847B9
:101B4000FEE70000A801002000B50320024948621A
:101B5000024802F0D9FB00BD000500400024F4005B
:101B60000748006801280AD106484068C00706D027
:101B70000548816D002901D036200847FEE77047EF
:101B800000C1004000C300402802002070B51C4E78
:101B900030681C4C1C4D012807D16868C00304D56F
:101BA000A16F002905D01E2088477068012801D048
:101BB00008E0FEE76868800304D5E16F002907D0DC
:101BC0001F208847B0680F4C8034012801D008E0FE
:101BD000FEE76868400304D5216800290DD0202065
:101BE0008847F068012807D16868000304D5616858
:101BF000002903D02120884770BDFEE7FEE70000E2
:101C000040810040A80100200083004070B51B4EB9
:101C100030681B4D1B4C012807D16868C00304D5F0
:101C2000A168002905D0222088477068012801D0CA
:101C300008E0FEE76868800304D5E168002905D064
:101C400023208847B068012801D008E0FEE76868D3
:101C5000400304D5216900290DD024208847F0686D
:101C6000012807D16868000304D56169002903D001
:101C70002520884770BDFEE7FEE700004091004048
:101C8000009300402802002070B501201349000491
:101C90008860134800250560124C6068002802D156
:101CA0001148FFF7C9FBA570636810480122656001
:101CB00042600F484168006895031430A94205D27C
:101CC0000325AD03A84201D9627005E0814201D32A
:101CD000012000E000206070984770BD00A3004024
:101CE00040A1004044010020ED00040040A000405D
:101CF00040A500400348416A002901D00920084757
:101D0000FEE70000A80100200748006801280AD16A
:101D100006484068C00706D00548C16E002901D0BA
:101D20003B200847FEE770470001014000030140E7
:101D30002802002000B5030006F024F843232629DA
:101D40002C2F3233333537393B39393939393B3B2D
:101D50003B3B3B3D3D3D3D3D3F6363414141414355
:101D60004343434545454547474747474749494911
:101D70004949494B4D4F5151535557595B5D5F612F
:101D800063000D20C04300BD0C20C04300BD0420F3
:101D9000C04300BD0320C04300BD0020C04300BDC0
:101DA000FEE7002000BD012000BD022000BD032091
:101DB00000BD042000BD062000BD072000BD082096
:101DC00000BD092000BD0A2000BD0B2000BD112070
:101DD00000BD0C2000BD0D2000BD0E2000BD0F2059
:101DE00000BD102000BD122000BD142000BD152034
:101DF00000BD162000BD172000BD182000BD192011
:101E000000BDFEE7F0B593B002F098FA02F09CFC3A
:101E100062B6072005F0ACFF04461D2102F08EFCDF
:101E200004461090242005F0A3FF054680480123B6
:101E30001A4600902846109900F064FE05460F905F
:101E40002C2005F095FF06460F9901F0CFFE0646BF
:101E500078480660072005F08BFF0446012102F058
:101E60006DFC04460E9006210E9802F049FC0121FB
:101E70000E9802F001FC0E9802F030FC072005F0ED
:101E800077FF0446032102F059FC04460D9002211D
:101E90000D9802F035FC01210D9802F0EDFB0720B2
:101EA00005F066FF0446052102F048FC04460C904C
:101EB00002210C9802F024FC01210C9802F0DCFBBA
:101EC000072005F055FF0446072102F037FC0446C1
:101ED0000B9006210B9802F013FC02210B9802F0E4
:101EE000CBFB0B9802F0FAFB072005F041FF0446FC
:101EF000062102F023FC04460A9006210A9802F00B
:101F0000FFFB02210A9802F0B7FB0A9802F0E6FBF9
:101F1000072005F02DFF04460A2102F00FFC0446BD
:101F20000990072005F024FF0446092102F006FC71
:101F300004460890072005F01BFF0446082102F024
:101F4000FDFB04460790542005F012FF0746384871
:101F50003949079C00940191029026213846089B3C
:101F6000099A02F065FF07463448076001210068BE
:101F700002F004FF072005F0FBFE0446002102F0FA
:101F8000DDFB04462E4804600221006802F0B8FB25
:101F9000282005F0EDFE129002F0D0F90078012221
:101FA00001460590129804F0BBFF26491290086084
:101FB00064201F49FF220132930001930292039192
:101FC0000490FF202D30002301221F4900901D485E
:101FD000006804F0B9FE1D4908600F201C49042365
:101FE0001A460091019001211648006804F0DEFDB8
:101FF000144908680121017300BF072005F0B8FEED
:102000000446192102F09AFB04460690D82005F0F8
:10201000AFFE11901020009008480D9B0B9A0168AC
:10202000119803F02FFD0B491190086013B0F0BD1B
:10203000102700001000002040420F000800002080
:102040002C0000200400002091AC000018000020AB
:102050009AAC00000C00002000B5030005F092FED1
:10206000140B0D0F110B0B0B0B0D0D0D0D0F0F0F97
:102070000F1111111113002000BD012000BD02201D
:1020800000BD032000BDFEE700B5030005F07AFEA9
:102090000C0709090B0D0F111316090B0D18094830
:1020A00000BD002000BD0C2000BD042000BD06487E
:1020B00000BD064800BD0348401E00BD012000BD14
:1020C000FEE7000002040000010700000103000019
:1020D00010B5002211490A280ED00B281AD1104839
:1020E0008368012B16D10F4B5B685B0712D58260AA
:1020F0004868002810D00BE00B488368012B09D1F9
:102100000A4B5B685B0705D582600868002802D02F
:1021100002F0D2FC10BDFEE7FEE70000D800002070
:1021200000410040004300400031004000330040C7
:10213000002804D0012804D0022804D0FEE70120A2
:102140007047022070470320704700001CB50A202A
:1021500001F0E6FE02200A2305222321009001203F
:1021600001F012F8012001F09BFA1048416A006A60
:102170000F4B0222019100900121062002F0D8F9B4
:102180007F2205210F2005F031F90121162002F0F0
:1021900075FB2D2001F0A0FF0A2005F0A1FB022015
:1021A00002F0A0F8192001F0FDF81CBD400000105D
:1021B00088AC000070B5012504468571407900287F
:1021C00006D0012806D0022806D0032806D0FEE754
:1021D000162004E0172002E0182000E0192000F08B
:1021E0008DFD607985400148456070BD0063004009
:1021F00070B50160044602710020A0714D78084658
:10220000022102F07DFA0C490878042812D260718C
:10221000401C08702079FFF78BFF00042902084357
:102220006179064A89008918401C08610120E07123
:10223000204670BDFEE7000004010020006500405C
:1022400010B501F08DF810BD014901607047000024
:10225000E8AD000010B50948006800280AD1B72091
:10226000800005F085FD044600F002FB04460348AB
:10227000046000BF0148006810BD0000000000209D
:1022800070B504460D46012130200155A562E06A73
:10229000401CE062A06B6063616B0846193033211B
:1022A000FEF758F8E1630521C9016118486C05F093
:1022B000CDFB012070BD0000FFB583B004460D4684
:1022C0002069281AE06025613120005D00287DD159
:1022D0000622A16B5143224644328818069908F021
:1022E00030FA0622A16B51432246FF32773288181A
:1022F000059908F026FAA06B401CA063A06B332858
:1023000001D30020A0633020005D002874D100219B
:10231000059808F024FA0026865F0021059808F049
:102320001EFA0021415E4E430121059808F017FA7C
:102330000027C75F0121059808F011FA0021415ECE
:102340004F43F7190221059808F009FA0026865F25
:102350000221059808F003FA0021415E4E43B819A6
:1023600002900021069808F0FAF90026865F002105
:10237000069808F0F4F90021415E4E4301210698C9
:1023800008F0EDF90027C75F0121069808F0E7F98A
:102390000021415E4F43F7190221069808F0DFF94A
:1023A0000026865F0221069808F0D9F90021415ED7
:1023B0004E43B8190190E1690298814203DB216A1A
:1023C0000198814208DA2420005D00E025E0401CED
:1023D000C1B22420015502E000212420015524200F
:1023E000005D032806DD00212420015529462046F2
:1023F000FFF746FF11E0FFE7E16BA06B88420CD1CD
:102400000021302001550649206C01F09CFE052179
:10241000C9016118886D00F087F807B0F0BD0000B1
:1024200020A1070070B50646FFF714FF04460520FB
:10243000C0012018006DB04205D12046A16900F00E
:102440005BF805460DE00520C0012018406DB04244
:1024500005D12046616900F037F8054601E01420F7
:1024600070BD012D01D11220FAE71320F8E7F7B56E
:1024700006461546FFF7EEFE074601F069F80446EA
:1024800080230E223146204601F050F802212068B8
:1024900008F078F92068019908F089F90621694364
:1024A0000A463946FF317731206801F0F0FE0621F7
:1024B00069430A4639464431206801F0E8FE204667
:1024C00001F084F80020FEBDF8B504460D466561B4
:1024D0000521C9016118886A982109580E463146BC
:1024E0002846FEF7F7FB0746FEF7A4FCE061E0692B
:1024F0004043E0610120F8BDF8B504460D46A561F2
:102500000521C9016118886ABC2109580E46314667
:102510002846FEF7DFFB0746FEF78CFC2062206AA8
:10252000404320620120F8BDF8B50746FFF792FE50
:10253000009001F00DF8044680230E223946204613
:1025400000F0F4FF0121206808F01CF9009A916A5C
:10255000206808F026F93321206808F028F9009A4D
:10256000516B206808F01DF9204601F02FF8002576
:1025700000BF3320401B142801DD142001E033206C
:10258000401BC6B2324629463846FFF770FFA819ED
:10259000C5B2332DEDDB0020F8BDF8B506460F4679
:1025A000FFF758FE044602F07DF90546294620460D
:1025B000FFF766FE1220F8BDF0B589B0064607A801
:1025C00008F0B8F805A808F0B5F801273F0378002F
:1025D0000490032000030390B8000290052000033C
:1025E0000190032040030090FFF734FE054602F0FF
:1025F00059F9A862A86B6863696B084619303321E2
:10260000FDF7A8FEE963E86B441C00BF332C00DB38
:102610000024002105A808F0A2F80121090361188F
:1026200009B20180012105A808F099F801214903A8
:10263000611809B20180022105A808F090F8032171
:102640000903611809B20180002107A808F087F882
:1026500001218903611809B20180012107A808F04E
:102660007EF805210903611809B20180022107A83B
:1026700008F075F803214903611809B201800621A9
:1026800061432A464432881807A908F05AF80621FF
:1026900061432A46FF327732881805A908F051F8BD
:1026A000641CE86BA042B1D13046FFF73DFF05A89E
:1026B00000BF07A800BF002009B0F0BD70B50446F8
:1026C0000D4616460520C001201885650520C0016D
:1026D000201886620521C90161180122886A042137
:1026E00003F03CF90521C901611803231A46886AE1
:1026F000042103F065F90520C0012018806A0068F4
:10270000002820D00520C0012018806A006805211B
:10271000C9016118C8620521C9016118896A086880
:10272000002104F066FF0521C90161180863052135
:10273000C9016118896A0868012104F05AFF05215E
:10274000C901611848630520C0012018806A00692A
:10275000002820D00520C0012018806A00690521CA
:10276000C901611888630521C9016118896A08696E
:10277000002104F03EFF0521C9016118C86305214D
:10278000C9016118896A0869012104F032FF052135
:10279000C901611808640520C0012018C06A00281A
:1027A00007D00521C90161180022C86A214605F039
:1027B000B7F90520C0012018806B002807D005213B
:1027C000C90161180022886B214605F0A9F905218D
:1027D000C9016118C86A214605F06FF960600521DA
:1027E000C9016118886B214605F067F9A0600121D5
:1027F00089072046FFF768FE012189072046FFF779
:102800007BFE0020A0636063A062002124200155AC
:10281000302001553120015570BD70B504460D467C
:102820000520C0012018806A0068A8420FD1052049
:10283000C0012018036C0520C0012018426B052040
:10284000C0012018006B01682046FFF735FD70BD00
:1028500010B504463020005D002808D00021206C0F
:1028600001F0B8FC002802D000213120015510BD34
:10287000F0B585B004462046FFF7E6FC0446534811
:1028800020603323062252492046443005F087FA5F
:102890000446443C332306224D492046FF3077301E
:1028A00005F07DFA0446FF3C773C202005F060FAF5
:1028B00006460120009000232246283245A10190BF
:1028C000304605F05BF806460520C0012018466436
:1028D0000C2005F04DFA074622462C323FA107F0A6
:1028E00079FF07460520C001201887640522D20120
:1028F000A218916C0522D201A218506C04F0DEFFE0
:10290000102005F035FA022236A1039000F0F4FF02
:102910000521C90161180390C8641C2005F028FA3C
:1029200005462346183331A232A108F023F80546A4
:102930000520C001201805650521C9016118086D31
:10294000314904F011FC1C2005F012FA054623461B
:1029500014332EA22EA108F00DF805460520C00163
:10296000201845650521C9016118486D264904F004
:10297000FBFB0522D201A218116D0522D201A2187B
:10298000D06C00F08FFF0522D201A218516D0522F4
:10299000D201A218D06C00F085FF102005F0E8F9F4
:1029A000029001F043FC02902064702000F0D6FBFE
:1029B0001C4A0121702000F0E1F91B4A022170201D
:1029C00000F0DCF9204605B0F0BD0000F4AD0000D9
:1029D00035A700005374726F6B650000436F756E0E
:1029E0007400000054656E6E697300005261642FBC
:1029F000530000005374726F6B655F4779726F54B8
:102A0000687265736800000025240000470000001C
:102A10005374726F6B655F4163636C546872657366
:102A2000680000009B250000B925000010B5044691
:102A30000068816920468847002807D07F21E06828
:102A4000C905884203D1606801F032FE10BD400024
:102A5000000E0ED00121206A01F0BCFB0028F5D049
:102A6000606801F015FE002807D0E169206A01F0D6
:102A70006AFB606801F032FE10BDA169206A01F0B6
:102A800062FBE0E770B50446C1604800000E002616
:102A90000D4600280AD07F20C00581420DD1606814
:102AA00001F006FEE6616069A06170BD606801F03A
:102AB00015FE6069A661E06170BD0122D2053F2369
:102AC0008A1A1B069A420CD266693046FEF71CFA37
:102AD000294607F0EDFFFEF7D3F9A061301AE06157
:102AE00070BDFF22D205D14203D320680021426984
:102AF00004E08142F4DD2268014652692046904795
:102B000070BD000070B504461348049D03C4083C22
:102B10001E460846002A01D0062100E0052101F0EA
:102B2000EFFD3146606801F0A7FD0020E0606561BF
:102B3000E561A061102005F01BF9294601F06BFB4F
:102B40002062606801F0CAFD00212046FFF79AFF6D
:102B500001202072204670BD00AE000070B5044612
:102B6000002211461B2000F063F80548002545604F
:102B7000E06A01F0FBFA206B01F0F8FAE57370BD32
:102B80000075004030B5FFF7D5F802460846FFF75C
:102B900063FAFF24002A11DA1107090F08398B089C
:102BA0000E499B005918CB699207D20E94408007BA
:102BB000000EA34390400343CB6130BD9308084906
:102BC0009B005B181D689107C90E8C408007000EA2
:102BD000A543884005431D6030BD000000ED00E0C6
:102BE00000E400E000B5FFF7A5F8C106C90E01201A
:102BF00088400149086000BD00E100E000220B4967
:102C000018280ED004DC162807D0172804D106E0B7
:102C1000192808D0432801D0FEE70A6070474A60AF
:102C200070478A607047CA607047000000610040CA
:102C300010B501248C402849030005F0A3F8432374
:102C400023232323232424252632303232323232E6
:102C500032323232323535353535294B4B3737370D
:102C600037393939393B3B3B3B3D3D3D3D3D3D3FB0
:102C70003F3F3F3F3F434445464748494A4A4A4A07
:102C80004A4A4B00FEE7FEE7FEE7144817E04460BF
:102C900010BD846010BD4C6010BD8C6010BD10482C
:102CA0000DE0002AF9D0F6E70E4808E00E4806E0ED
:102CB0000E4804E00E4802E00E4800E00E48002AEC
:102CC000E7D0E4E7FEE7FEE7FEE7FEE7FEE7FEE724
:102CD000FEE7FEE7FEE7000000330040002300406F
:102CE0000043004000630040008300400093004028
:102CF00000A3004000B300400013014070B504463B
:102D0000830007481546C258002A00D0FEE7C1508C
:102D10002046FFF767FF29462046FFF733FF70BDC7
:102D2000A8010020F8B50E460A4D0446C17A286A6B
:102D300007F0FBFD411C0BD000906946686A07F064
:102D4000EBFD0768237BA27B3046E968B847F8BDF6
:102D50001020F8BD4C00002010B5202802D0E0283B
:102D600000D0FEE700F00AF810BD10B5302802D000
:102D7000F02800D0FEE700F001F810BDF8B52C4DAA
:102D800014460E4670283CD006DC102809D02028B6
:102D900017D0302804D124E0E02812D0F02820D029
:102DA000FEE7A86907F0C1FD411C03D00090694609
:102DB000E8692EE03146A86907F0C6FD2146E869BA
:102DC00031E0286A07F0B1FD411C03D0009069464C
:102DD000686A1EE03146286A07F0B6FD2146686A37
:102DE00021E0A86A07F0A1FD411C03D000906946CC
:102DF000E86A0EE03146A86A07F0A6FD2146E86AB7
:102E000011E0286B07F091FD411C06D00090694647
:102E1000686B07F081FD046007E03146286B07F01E
:102E200093FD2146686B07F060FD0120F8BD0000AE
:102E30004C00002008B5C8680E214278C078009088
:102E40000248406900F057FC002008BD4C000020FB
:102E5000F8B50E460A4D0446C17AA86A07F065FD2A
:102E6000411C0BD000906946E86A07F055FD0768E1
:102E7000237BA27B3046E968B847F8BD1020F8BD37
:102E80004C00002010B500210170012202818172E6
:102E90004173C181017441748174044AC172D26862
:102EA0009160406901F062F910BD00004C00002003
:102EB000FEB50446407C8D4D002802D02046FFF729
:102EC000E1FFAAE021780B0004F05CFF0604233642
:102ED0004A5FA79C01A907F005FC002807D06846B7
:102EE0000079CC2804D0A868401CA86095E0FEE7D3
:102EF0002074012020702081606800F0BBFF01F089
:102F0000D1FC06463146A06901F0F2FC6860A6617A
:102F100083E001A907F0E6FB68460079A072010989
:102F2000090121730107090F6173217C08182074BE
:102F300002202070012011E001A907F0D3FB6846B0
:102F4000217C007909182174002804D0E081042133
:102F50002170401C02E003202070022020815CE0F0
:102F6000022202A900F0D6FF6A461089E0810421FE
:102F70002170811C2181217C527A89186A46127A3B
:102F800089182174FE2848D998E70021E8680E4680
:102F9000816015E001A9606807F0A4FB6946207C08
:102FA000097940182074E868436882689A4204DA14
:102FB000531CC7688360B95401E000218160761C0E
:102FC000E089B042E6DCE86801A9C0680078E072F8
:102FD000606807F087FB6946207C0979884205D143
:102FE0000120A07405202070801FB7E7E069162239
:102FF000401CE061E07A0090237B0E21606800F0C5
:103000007AFB5BE72046FFF73DFFE07A0090237BE9
:1030100011220E21606800F06EFB60688169896989
:103020002289914203DBA17C002900D14AE7A17CDF
:10303000012950D1617B0F290AD00E292DD02C4AAD
:103040001268127A8A423CD9084600F09FFF20E0BD
:103050000146227B204600F0E7F80246102806D001
:10306000002A35D0E07A0090237B60682DE0286943
:10307000002802D0616881420BD1237B202B03D032
:10308000E02B01D0702B23D1E07A009010226068F1
:103090001BE0227B0F21EB6810E06E69002E17D039
:1030A0002978002902D02A69904203D1227B0E217F
:1030B000EB6802E0017B227BEB68304600F0D8FA37
:1030C00006E0E17A0091237B11220E2100F013FB30
:1030D0002046FFF7D7FE0121606901F07BF8002848
:1030E00002D02046FFF7CEFEFEBD00004C000020BF
:1030F000C8000020F8B50E460A4D0446C17A286B78
:1031000007F013FC411C0BD000906946686B07F078
:1031100003FC0768237BA27B3046E968B847F8BD0B
:103120001020F8BD4C000020F8B50E460A4D0446AC
:10313000C17AA86907F0F9FB411C0BD000906946E1
:10314000E86907F0E9FB0768237BA27B3046E96862
:10315000B847F8BD1020F8BD4C000020010901203F
:10316000884002494A881043488070474C0000203C
:1031700001090120884003494988084000D0012006
:10318000704700004C000020FFB581B005460F4697
:103190000C200A9E04F0ECFD294607F0E0FB214CD0
:1031A000A0610C2004F0E4FD294607F0AAFBE061D1
:1031B0000C2004F0DDFD394607F0D1FB20620C2025
:1031C00004F0D6FD394607F09CFB60620C2004F049
:1031D000CFFD039907F0C3FBA0620C2004F0C8FDEB
:1031E000039907F08EFBE0620C2004F0C1FD049906
:1031F00007F0B5FB20630C2004F0BAFD049907F03A
:1032000080FB60630C2004F0B3FD314607F0A7FBA0
:10321000A0630C2004F0ACFD314607F072FBE063C4
:1032200005B0F0BD4C00002070B505460E461024D8
:103230001046FFF79DFF002826D0287B0107090FC5
:1032400022D10011030004F09DFD101F090E131878
:10325000181F1A1F1F1F1F1F1F0E131F314628463E
:10326000FFF762FF0FE031462846FFF75BFD0AE0FB
:1032700031462846FFF7ECFD05E0002404E0314626
:103280002846FFF737FF0446204670BD70B50D0095
:1032900004460BD0102004F06BFD00F0C7FF656002
:1032A0000D4D6061E868002801D007E0FEE71020BE
:1032B00004F05EFDFE2101F001F8E8602046FFF712
:1032C000E1FD01F0EFFAA061044AEE213020FFF7A2
:1032D0004CFD204670BD00004C000020352E000043
:1032E00010B50446C068A268904205D160680268C3
:1032F00012689047002000E0401CE06010BD000014
:10330000F8B5164D00242868007A46B20AE0009409
:103310006946286807F067FA00684068002817D0F7
:10332000641C64B2B442F2DB286841688068081A01
:1033300000280FDD102004F01BFD00F06FF801469F
:10334000286807F072FA2868007A401E40B2F8BD7B
:103350002046F8BD0020C043F8BD00008C000020CE
:10336000F8B50D4F064638680024057A10E0009441
:103370006946386807F037FA00684168B14205D1FC
:103380000068002802D0314604F073FB641CE4B2EC
:10339000AC42ECD3F8BD00008C0000200EC0002130
:1033A0000160704770B5074C05462068002800D0C2
:1033B000FEE70C2004F0DCFC294607F042FA20600E
:1033C00070BD00008C000020002101604160816020
:1033D000C1607047F7B5104D82B0286816460F4699
:1033E000002816D0FFF78CFF040013D40094694620
:1033F000286807F0F8F9006833463A460299FFF763
:10340000CDFF00946946286807F0EDF9006805B023
:10341000F0BDFEE7FEE700008C00002010B5084A72
:103420000446106800280AD00020E060A0602060F8
:1034300060602146106807F0F8F9204610BDFEE7ED
:103440008C000020012109074A69824200D2FEE770
:103450000969484370470000024901200968087261
:103460007047000000010020F8B506461748002408
:103470000568297A002901D00020F8BD144F002DDD
:103480001BD0144901224A6039680029FCD0B16878
:103490000091A14206D9F0680019FCF74AFF241DEB
:1034A0000099F6E70ACD094AC91808601068416812
:1034B000091D416038680028FCD000200549B06033
:1034C000486038680028FCD00120F8BD00010020C9
:1034D00000E4014000E50140064A02205060064831
:1034E00001680029FCD00548006800689060012050
:1034F0007047000000E5014000E4014000010020A9
:10350000024900200968087201207047000100206C
:10351000054A1368002B00D0FEE71060016000210F
:1035200041600121017270470001002070B504461E
:10353000407A16460D46002805D0E86B401CE8632B
:10354000204600F0D1F865602672637270BD0000FD
:10355000F8B51D4D6F68002F04D0296801240020A4
:103560008E6806E0FEE70A688300D258A24204D0C3
:10357000401C8642F7DC0020C043411C07D0B968DC
:10358000884220D23968800008180068F8BD0C20F5
:1035900004F0EEFB00F014F929684B688A689A423F
:1035A0000FDA9600521C0B688A609C5169684B6860
:1035B0008A689A4206DA9500521C0C688A6060514B
:1035C000F8BDFEE7FEE7FEE744000020F8B504463C
:1035D0000068277A8568607A6E1D07436068C06955
:1035E00000F057FAB0423ADDFE2D38DC606800F09A
:1035F000DFFC002833D0CC21606807F078F8A07A8F
:103600003946CC30A072606807F071F8A07AE9B250
:10361000C019A072606807F06AF8A07A4019A07219
:103620000020216809E0CA686B46121812781A70E7
:10363000A37A9A18401CA272C0B2A842F3DB606859
:10364000C06900F0D0F9A17A606807F050F8204610
:1036500000F04AF86068002141750120F8BD6068FB
:10366000C16B491CC163204600F03EF80020F8BD44
:10367000FFB581B016460F4605000ED0FFF768FF74
:10368000044633463A462946FFF750FF206804991E
:1036900000F0F7FD2046FFF799FF05B0F0BD0000F0
:1036A000F8B5104F05467868002800D0FEE70C20DA
:1036B00004F05EFB044645600020AE00A06030468A
:1036C00004F052FB20600C203C6004F051FB0446E7
:1036D00045600020A060304604F046FB20607C601E
:1036E000F8BD0000440000200268002191600172D2
:1036F000417281727047FFB581B015000F460446D4
:103700003FD0172D3DD0FFF723FF064630233A4622
:103710002146FFF70BFF3068EE224368816899422B
:1037200004DA4F1CC36887605A5401E000218160AD
:10373000306842688168914204DA4F1CC368876030
:103740005D5401E0002181603068049A436881681B
:10375000994204DA4F1CC36887605A5401E0002183
:10376000816030680A9A43688168994204DA4F1C84
:10377000C36887605A5401E0002181603046FFF73A
:1037800025FF103D2B0004F0FDFA07050A080E087E
:1037900016120800206F401C206705B0F0BD606F56
:1037A000401C6067F9E7A06F401CA067F5E7E06F79
:1037B000401CE067F1E780342068401C2060ECE7A3
:1037C00010B50446102004F0D3FAFE2100F076FD77
:1037D00020602046FFF788FF204610BDC268914256
:1037E00003D24068401800787047FEE707494A69ED
:1037F0009168814207DD884204D211688000081870
:1038000000687047FEE7002070470000900000202D
:10381000F8B50C460546302902D0F02C00D0FEE762
:10382000FFF796FE074623460E222946FFF77EFE47
:103830002021386806F0A6FF00261BE03046FFF77F
:10384000D5FF050005D0297B386806F09BFF0024D2
:103850000BE01320F8BD21462846FFF7BFFF0146C5
:10386000386806F08FFF641CE4B2E868A042F2DC1E
:10387000761CF6B2044840698068B042DEDC384607
:10388000FFF7A4FE0020F8BD9000002010B5202B0B
:1038900002D0E02B02D0FEE7302100E0F021FFF75C
:1038A000B7FF10BD10B58A7C8368C168994204DAFD
:1038B0004B1C4468C360625410BDFEE770B5094EEE
:1038C00005467069002800D0FEE70C2004F050FA8D
:1038D000044645600020A060A80004F045FA20607E
:1038E000746170BD9000002000B5FFF77FFF0028D5
:1038F00000D0006800BD000070B5041D0E460546EE
:10390000002162601046A16004F02EFA20600A488F
:103910002E6040694268816891420BDA8C00491C34
:103920000368816020211D51044A0846FFF714FAFC
:10393000284670BDFEE70000900000208D38000092
:1039400070B50A46044600F0A8F8A06900250028D2
:1039500005DCA561204600F090F8002070BD2069CC
:10396000002800DAFEE72169E068405C1070A06979
:10397000401EA061A069002804DC0020C043206133
:10398000A56105E0A1682069401CFCF7F1FC2161FC
:103990006571012070BDF7B50098164680690F4625
:1039A0000025B04209DB002405E039190098FFF733
:1039B000C7FF4519641CB442F7DB2846FEBD70B54D
:1039C0000446C0680D46002803D1084604F0CCF92F
:1039D000E060002D04D0A560204600F04EF870BDD8
:1039E0000120A060F8E710B58A68C96800F001F806
:1039F00010BDF7B507468068B96916460025401A1C
:103A0000B0420ADD002406E00198015D384600F06E
:103A100006F84519641CB442F6DB2846FEBD70B5B5
:103A20000A460446002500F038F8A069A1688842DB
:103A300003DAA069401CA06103E02079002807D0C8
:103A400001256169E06842542069401C05D006E008
:103A5000204600F012F8002070BD60692061A16866
:103A60006069401CFCF784FC6161002D01D0206975
:103A7000606100206071012070BD00B5024600F059
:103A80000CF80020C043106100205061906150711B
:103A900000BD81688069081A70474179002901D00A
:103AA00000207047012141710846704710B5044657
:103AB0000348206000222046FFF781FF204610BD0A
:103AC0002CAE000070B504460079012600250028C0
:103AD00022D00121A06A00F07DFB00284CD0206993
:103AE000401C2061E168884204D32561E06960627E
:103AF000267602E0207E002803D0206A60622576C8
:103B000002E0E069606226762169606989004158B7
:103B1000A06A00F018FB2FE0607900281FD0012177
:103B2000A06A00F057FB002826D02069401C2061C5
:103B3000E168884207D92561207E002801D02576DA
:103B40000FE0267602E0207E00280AD0A168606A95
:103B500006F03EFF6062216A07F002F80CD2206A8C
:103B600009E0A168606A07F027F86062E16906F081
:103B700075FF01D2E06960622068616A026852697B
:103B80009047206801680968884770BD10B5012416
:103B9000047100234371C2604161C26942620476CC
:103BA00003610968806A00F0CEFA10BDF8B50F46CF
:103BB0000446C169006A06F0FFFF0B49FDF78AF869
:103BC000A060002525710126667164213846FCF746
:103BD000C1FB0146A06A00F0B6FAE0696062267691
:103BE00064202561E060F8BD0000C84270B5002582
:103BF0000561044601600120A560E06025716571E2
:103C00002576102004F0B4F800F010FBE561A06206
:103C10007F20C00565622062206801684A692946E4
:103C20009047204670BD10B50446C069FFF7B3FE4B
:103C3000216B0918216310BD70B50E460546017B46
:103C4000304606F09FFD0446297D304606F09AFD79
:103C5000001970BD10B5C36A9B18C3628069FFF775
:103C6000C8FE10BDF8B50646FFF772FC05464023B6
:103C70000E223146FFF75AFC2C6800F05FFB0178FA
:103C80006268A0680027904204DA431CE268A360DF
:103C9000115400E0A760316A286800F0F2FA284663
:103CA000FFF794FC306A8760F8BD0000F8B5002586
:103CB00007462C46084E09E06946009406F0CCFD04
:103CC00000683946FFF7B8FF4519641C3068816801
:103CD000A142F1DC2846F8BDC8000020C16A41635A
:103CE000016B81630021C16201637047F8B515461D
:103CF0000E460746302A00D0FEE7FFF729FC0446AF
:103D00002B460E223946FFF711FC0B21206806F0E6
:103D100039FD397B206806F035FD3146206806F014
:103D200040FD2046FFF752FC0020F8BD10B50446C8
:103D3000006A806800280DDDA16A814205D9012151
:103D4000606A00F047FA002804D02046FFF78AFF97
:103D5000012010BD002010BDF8B5094E00243068C8
:103D6000057A09E000946946306806F075FD006840
:103D7000FFF7B4FF641CE4B2AC42F3D3F8BD00001B
:103D8000C800002038B51C460B460546012269468E
:103D9000184606F0EEFC202C02D0E02C02D0FEE704
:103DA000302200E0F02228460099FFF79FFF38BD3F
:103DB000FFB5002481B01D461746F12A02D9132011
:103DC00005B0F0BD302D02D0F02D00D0FEE7FFF79A
:103DD000BFFB06462B460E220199FFF7A7FB0F21DA
:103DE000306806F0CFFC00F05DFD0146306806F05B
:103DF000D8FC3068029906F0D4FC0198C16C306898
:103E000006F0CFFC002506E02146641CE4B23068D1
:103E100006F0B8FC6D1CBD42F6D33046FFF7D6FB6A
:103E20000020CDE710B5202B02D0E02B02D0FEE71A
:103E3000302100E0F02100F001F810BD70B50D4612
:103E40000646302902D0F02D00D0FEE7FFF780FBB8
:103E500004462B460E223146FFF768FB04212068FA
:103E600006F090FC2068FFF721FF2046FFF7AEFB2D
:103E7000002070BD10B54068002801D000F05EF948
:103E800010BDFEB50F461646044601226946384667
:103E900006F06FFC401CC5B22A4601A9384606F060
:103EA00068FC4019C2B202A9384606F062FC0D3E19
:103EB0002665A06D401CA065616D081AE06500F0E4
:103EC000F1FC0199401A206600986066A16E029884
:103ED000411AE166A0660020FEBD7CB50E46044690
:103EE0001D4601226946304606F043FC401CF1683D
:103EF000C0B20818027868460271202D02D0E02D69
:103F000002D0FEE7302300E0F02320460099FFF7BF
:103F10004FFF7CBD10B58069FFF73DFD10BD00006F
:103F200070B5094E05463068002800D0FEE70C2029
:103F300003F01EFF044645600020A060A80003F0C7
:103F400013FF2060346070BDC800002010B5044627
:103F50000020E0622063A069FFF78FFDE069FFF7B2
:103F60008CFD10BD10B50A46016A104603F0A2FD93
:103F700010BD10B580304068FEF79AFF10BD10B537
:103F800000F004F8002800D0006910BD014608B513
:103F900006480068027A8A4205D90091694606F00F
:103FA0005BFC006808BD002008BD0000C8000020C0
:103FB000417D002901D0002070470121417508464C
:103FC00070470000FFB581B016460F460B9DFEF707
:103FD0003BF931490446016030480068002858D058
:103FE0002675017A2173276142688168914251DA0E
:103FF0008E00491C036881609C51202003F0B8FEAC
:104000002146FFF743F9842108511C2003F0B0FE3C
:104010000499FFF74BFDA0611C2003F0A9FE0A994B
:10402000FFF744FDE0610020E06220636063A0636D
:10403000E0636075102003F09BFE294600F03EF916
:104040002062102003F094FE0C9900F0E4F8606206
:104050000D98134A281AA06204212020FEF77CFE46
:10406000104A0B212020FEF777FE0F4A0F21202057
:10407000FEF772FE0D4A0F213020FEF776FE10206B
:1040800003F076FE002100F0C6F86064204605B01B
:10409000F0BDFEE7FEE700003CAE0000C8000020D7
:1040A000253E0000853D0000DB3E0000833E000011
:1040B0000148406880687047CC00002010B5FFF7C9
:1040C000F7FF0446002303E0184600F06BF85B1C82
:1040D000A342F9DB10BD000070B5094E05467068BB
:1040E000002800D0FEE70C2003F042FE04464560A5
:1040F0000020A060A80003F037FE2060746070BD4F
:10410000CC00002070B5044600F01EFB002060606B
:10411000A0602073084A2070506843688168994203
:1041200009DA8E00491C05688160AC515068007A3C
:10413000401E607370BDFEE7CC00002010B54168E2
:1041400000F001F810BD70B50D46044600F0AAFB62
:104150004119A160A2680121824201D2217301E0CC
:104160000020207321700120656070BD0021017066
:104170007047000070B50A4C05462068002805D13C
:10418000102003F0F5FD00F051F820602946FFF7FC
:10419000DAFF206800F02BF80028FAD070BD00008C
:1041A000CC0000200A4949688A6890420CD209680C
:1041B0008000081800680178002904D0027B0021E3
:1041C000002A02D001737047FEE78160704700004B
:1041D000CC00002070B50D46064600F008F80446F5
:1041E000254202D03046FFF7A9FF204670BD70B5CA
:1041F00004460078002500280BD000F053FB217BFB
:10420000002906D1A168814203D20020207001203C
:1042100070BD284670BD70B50C460546FFF772FFAD
:1042200021462846FFF78FFF284670BD10B5054987
:1042300004464968002903D0FFF764FF204610BDFB
:10424000FEE70000CC000020002202E0C368995481
:10425000521C43689342F9DC002181607047F3B53A
:10426000002581B00F462C463E5D641C3146019806
:1042700006F088FA2D18002801D0002EF4D1284627
:10428000FEBD10B58A68C96800F001F810BDF8B528
:1042900006460F464068B1681546401AA84201DA42
:1042A0000020F8BD002404E0395D304606F06AFACB
:1042B000641CAC42F8D32846F8BD000010B5044693
:1042C00007482060002908D06160084603F04CFDD3
:1042D000E0600020A060204610BD01206060F4E78F
:1042E00048AE000070B505460C2003F041FD0446C1
:1042F00045600020A060A80003F036FD2060014862
:10430000046070BDB00000200021064A1160012148
:104310008A07116000BF034909680029FBD00249E0
:104320000860704700010040D400002010B500F084
:1043300005F8007810BD0020704700000248406872
:10434000002800D1FEE77047A8000020FFB581B02B
:104350000D460A9E0B0003F015FD0604080C151A05
:104360001E44FFF7EBFF046907E00398FFF707FE21
:1043700002E0039803F0CAFA0446002C31D0302E34
:104380000DD0FEE70499039803F028F9F4E70398A9
:1043900003F004F9F0E70398FFF7A6FAECE7FFF75C
:1043A000D7F8074633460E220199FFF7BFF80121DF
:1043B000386806F0E7F92946386806F0E3F9386806
:1043C000039906F0DFF93868049906F0DBF9214615
:1043D0003868FFF744FF3846FFF7F8F8002005B0CB
:1043E000F0BD1320FBE700207047000010B50D481A
:1043F0000068FEF7B3FB0C48FFF7BCFE0B480068F3
:1044000000F056F905210948006800F079F9042107
:104410000648006800F080F90448006800F05EF982
:10442000012010BD24000020102700002C000020D7
:104430007CB50D460646302900D0FEE7FFF788F828
:1044400004462B460E223146FFF770F80321206800
:1044500006F098F92368FFF771FFC1688068019141
:104460000090082269461846FFF711FF2168FFF700
:1044700065FF02784B688868984204DA431CCD686F
:104480008B602A5401E000208860FFF757FF4188C5
:10449000206806F08CF9FFF751FF8188206806F04C
:1044A00086F92046FFF792F800207CBD014800689D
:1044B00070470000A80000207CB500226D462A71DC
:1044C000CC6861782970A2782A70032901D1E47838
:1044D0002C71202B02D0E02B02D0FEE7302300E02D
:1044E000F02300932B79FFF731FF7CBD10B5FFF768
:1044F0007AFF012801D0102010BD122010BD10B588
:10450000FFF774FF012801D0102010BD122010BD4C
:1045100010B500F027F810BD10B5202B02D0E02B0D
:1045200002D0FEE7302100E0F021FFF781FF10BD4F
:10453000FFB50B4C85B060680F9E0E9D1F4600288E
:1045400000D0FEE7182003F013FC009703960295B5
:1045500005A90EC900F032F8606009B0F0BD000096
:10456000A800002038B50546FEF7F2FF04461023E8
:104570000E222946FEF7DAFFFFF7E0FE01782068F9
:1045800006F000F90121206806F0FCF8256800F02B
:1045900089F90090042269462846FFF778FE022137
:1045A000206806F0EFF8FFF7C6FE0146206806F027
:1045B000FEF82046FFF70AF8002038BD70B5044623
:1045C000049E079D069821706280A380083461C410
:1045D0000D4A03212020143CFEF7BEFB0B4A0A21A2
:1045E0002020FEF7B9FB0A4A01212020FEF7B4FB88
:1045F000084A08212020FEF7AFFB074A09212020A6
:10460000FEF7AAFB204670BD1945000011450000C9
:10461000B9440000FF440000ED4400001049114A75
:10462000232818D008DC16280DD017280DD01828FC
:104630000DD0222806D10CE026280AD027280AD03F
:1046400031280AD0FEE708487047084870470848F4
:10465000704708467047104670470648704700008C
:1046600000300040004000400080004000900040CA
:1046700000A000400020004081707047034940784E
:104680000969C140C807C00F70470000000500500D
:1046900010B58178022902D000F014F810BD00F0A6
:1046A00001F810BD10B5FFF7E9FF0121484010BD2A
:1046B00010B58178022902D000F01AF810BD00F080
:1046C00005F810BD10B5FFF7D9FF10BD40780121E6
:1046D00081400148C16070470005005010B58178E5
:1046E000022902D0FFF7F2FF10BD00F001F810BD63
:1046F00040780121814001488160704700050050E9
:1047000000B542780846FDF7BFFC9100014A8918C0
:10471000086000BD000700504278074B9200D21895
:104720001268012906D0022904D0032902D00429E5
:1047300000D0FEE770470000000700500022027022
:104740004170C2708270704702480068002800D132
:10475000FEE77047B800002070B5144C15460522DE
:104760006168042312028818036100234360032355
:104770008360181F63789B00591889180864606863
:104780000126C660032271041202801841602A4685
:1047900007491F20FEF7B2FA29461F20FEF7F2F95B
:1047A0000449300208606068066070BD080100209E
:1047B0004D48000000E100E070B50C460646302987
:1047C00002D0F02C00D0FEE7FEF7C2FE05462346DD
:1047D0000E223146FEF7AAFE28683022436881681F
:1047E000994204DA4B1CC4688360625401E00021E2
:1047F00081602846FEF7EAFE002070BD70B5074DC7
:104800000021AC68E868A41802465A41AC60491A15
:10481000EA60904101D2FFF751FC70BDB800002062
:1048200010B5202B02D0E02B02D0FEE7302100E0B3
:10483000F021FFF7C1FF10BD10B5C868401CFBF7A1
:1048400078FD00F045F8122010BD000010B50948B1
:104850000068002803D000220123FFF7CFFF06489D
:1048600000214278406892001018FF300130016446
:1048700010BD0000B80000200801002070B5084CF1
:10488000064620680D46002800D0FEE7012003F010
:104890006FFA2A46314600F033F8206070BD000000
:1048A000B800002010B500F001F810BD0748012144
:1048B000027843689200D218116401784068890038
:1048C0000818052109024018006C704708010020F3
:1048D00008B5009068460178044802784068920064
:1048E0001018052212028018016408BD080100207A
:1048F0000A1A814201D310467047501E70470000CB
:1049000010B50446FFF728FF074900228A60CA60F5
:10491000064A30212020FEF71FFA054A31212020C7
:10492000FEF71AFA204610BDB8000020214800000A
:104930003948000010B50A46417A104605F022FFBA
:1049400010BD10B50B46027A41681846FFF79FFC70
:1049500010BD0000F0B5094D01226A60084B094CFA
:10496000002607E026601A602768002FFCD0AF6899
:104970000770401C491EF5D25A60F0BD00D50040BA
:1049800000D0004000D10040F3B582B002980E463E
:1049900000688F680022C11DF93101918A60F168B9
:1049A00001240A7869460A70052109024518EA615E
:1049B00015E02046F168641C081800786946087004
:1049C000E861029800F0C8F90028FAD0029800F0D7
:1049D000C3F90028FAD1A86969460870641CBC4272
:1049E000E7D3029800F0B8F90028FAD1A869019934
:1049F00000208860012004B0F0BD000030B51B4BE2
:104A00000268CC1A994228D00ADC194BC9181ED06A
:104A1000C9181FD05B00D94218D10121C9060AE08C
:104A20001249494261181BD0124BC9181BD05B00B8
:104A3000D9420BD1C90505240025240213191D6094
:104A40001219516200F07CF9012030BDFEE701210E
:104A50004906F0E701218906EDE701210907EAE7A8
:104A600001214907E7E701218907E4E740420F00F8
:104A7000B817FEFF807BE1FF70B504464030007838
:104A80000D46002816D0022D02D0E06C401CE064D8
:104A9000E069002803D0FFF721FE0020E0612046F6
:104AA00000F008F90020C043A0632946204600F02A
:104AB000ECF870BD0325E8E770B5044605680520ED
:104AC00000022E18B069C1B2606B05F05BFEA06BEE
:104AD000401EA063A06B002801DDFF20F061A06BE9
:104AE000401C08D1032104200902691888600221B2
:104AF0002046FFF7C1FF70BD70B5044600681A4A32
:104B00001A49904201D10C6003E0194A904229D120
:104B10004C60082125682069FFF7F2FD08216069D3
:104B2000FFF7EEFD0921A069FFF7EAFD05212068E6
:104B30000022090240180260A0696D1840782861BF
:104B400060694078E86020694078A8602046A168E4
:104B5000FFF754FFA06006206865204600F0F0F8DB
:104B6000012070BDFEE7000000300040D8000020AA
:104B700000400040FFB581B00198FF260068002288
:104B8000C71DF937BA60052212028518E9610124B0
:104B900010E0EE61641C019800F0DEF80028FAD005
:104BA000019800F0D9F80028FAD1A869C1B2039899
:104BB00005F0E8FD04988442EBD3019800F0CCF8AE
:104BC0000028FAD1A869C1B2039805F0DBFD01986D
:104BD00000F0C2F80028FAD1B860012005B0F0BD9D
:104BE000F0B5174606464022925DFF20002A01D00C
:104BF0000520F0BD052235681202AC18E161E061C4
:104C0000304600F0A9F80028FAD0304600F0A4F8A9
:104C10000028FAD1A069304600F09EF80028FAD1A9
:104C2000A06938700020FF350135A8600120F0BD73
:104C3000FFB581B00446403000780B9F0A991D46AD
:104C40001646002806D00021606CFFF7C3FA052045
:104C500005B0F0BDE761002066632063B060A56326
:104C6000E163E068691C4843216D4118606CFFF7FF
:104C70006AFA2B46324600972046029900F01EF849
:104C8000204600F019F80120E2E710B5C26B002AB7
:104C900000D0117002464032012908D00021117065
:104CA00001634163C163406CFFF760FA10BD0120EE
:104CB000107010BD0120704701207047FFB581B012
:104CC0000546FF260121FFF7E0FF0498A8630A9834
:104CD000FFF7EEFC28462030417B027B2C68114216
:104CE00000D0FEE7807B0027002817D0FF20093086
:104CF00007511148844201D10A2003E00F48844241
:104D00000BD10B2001220221FDF792FF05200002AA
:104D100020180299C161C66108E0FEE702AE0ECE1E
:104D20002846FFF727FF0A98FFF7D8FCFF34013425
:104D3000A760012005B0F0BD0030004000400040F9
:104D40000068052201211202821811600021FF3043
:104D5000013081600120704708B50068FF300130E4
:104D60008168002900D001216A461170117800295C
:104D700001D000218160107808BD000010B5044604
:104D80000068094A904201D10A2003E0074A904294
:104D900008D10B200A460649FDF7B0FF0120203458
:104DA000A07310BDFEE7000000300040004000404E
:104DB000D120000010B50446E16B0120002916D077
:104DC000097801291CD122462032517B002904D0C8
:104DD000A16A0978002900D00020117B002903D0A6
:104DE000616A097800290FD1002809D10CE0402020
:104DF000005D002808D02046FFF7AEFF002803D151
:104E000002212046FFF738FE2046FFF7A5FF0028C5
:104E10000CD00021606CFFF7DDF9002806D0A06CF3
:104E20000321401CA0642046FFF726FE10BD0000B1
:104E3000F8B50446069F089E079821710D46214645
:104E400026651031A0608CC1FBF7EDFD02460B46D4
:104E500000201149FBF776FB0022104BFBF7E6FD23
:104E60000322FBF707FF0122FBF704FFFBF78EFD90
:104E7000E0602846FFF7D2FB2060102002F078FFA8
:104E8000FFF7D4F960640020A064E0642046FFF7D7
:104E900033FE2046F8BD00000000F03F80842E4124
:104EA00010B501460446C031887C3822104388740E
:104EB0002246D2321F21204600F0C9F8012080345A
:104EC000607710BDF8B50446006B202801D920207A
:104ED0002063218EC020491EC906C90E25460843FD
:104EE000C035E87222460027CB322E21204600F042
:104EF000AEF8687A122108430126304368722246D0
:104F0000C9322321204600F0A2F822462F73CC326A
:104F10002F21204600F09BF8422006550E22152135
:104F2000204600F082FCF8BD10B50446C034E1799B
:104F300038221143E171E21D1E2100F088F80120A2
:104F4000607010BDFEB507460446B0379E303E681F
:104F500000210090415E0846FBF7CEFF25468035D4
:104F6000E96B05F0A5FD314605F026FE2646A43680
:104F700030607868019000980221415E0846FBF796
:104F8000BBFFE96B05F094FD019905F015FE70601B
:104F900000980421415EBF680846FBF7ADFFE96B4E
:104FA00005F086FD394605F007FEB060206902F085
:104FB0004DFDA06902F04AFD27468C373868009005
:104FC000AE1F0020305EFBF797FFA96905F070FD6A
:104FD000009905F0F1FD2860786800900220305EAD
:104FE000FBF78AFFA96905F063FD009905F0E4FD70
:104FF00068600420BF68305EFBF77EFFA96905F09A
:1050000057FD394605F0D8FDA860206802F01EFD66
:10501000A06802F01BFDFEBD70B516460D460446A5
:1050200001E0FFF7C7FE206E4021095C0029F8D19E
:10503000A06EFFF73DFB8020294601433246206EDB
:10504000FFF7CEFDA06EFFF749FB012070BDF7B55D
:105050000446006F0E46426881680025914204DADA
:105060004F1CC36887605E5400E08560206F029922
:1050700043680A788168994204DA4F1CC3688760E4
:105080005A5403E0856001E0FFF794FE206E402152
:10509000095C0029F8D1A06EFFF70AFB216F206E92
:1050A000FFF772FC0746A06EFFF718FB206F314632
:1050B00085602046029AFFF7AFFF3846FEBDF8B57F
:1050C00006460C4615460121204605F048FB078898
:1050D0000021284605F043FB07800021204605F00B
:1050E0003EFB0088404207B20121284605F037FB0D
:1050F00007800221204605F032FB0088404207B2BB
:105100000221284605F02BFB0780F8BDF8B50646BE
:105110000C4615460121204605F021FB0788002199
:10512000284605F01CFB07800021204605F017FBF0
:105130000088404207B20121284605F010FB078095
:105140000221204605F00BFB0088404207B20221F5
:10515000284605F004FB0780F8BD000070B5064640
:105160000C480468002C0FD0606EFFF791FA0028FD
:105170000AD021462031087B0D46002804D1FFF7D4
:1051800091FBA0620120287300213046FDF736FD17
:1051900070BD0000FC000020F8B505460446C0358F
:1051A000E87C3B4A41090020C0430B0002F0EAFDC5
:1051B000080507090B0D0F11052401460AE03549C2
:1051C00008E0354906E0114604E0344902E034497C
:1051D00000E03449236826469960A36880369960C8
:1051E000EB7CDB069B0F002B07D0012B07D0022B9B
:1051F00011D0032B11D0FEE7FEE72B4B00E02B4B29
:10520000B361AB7B5F093B0002F0BCFD0815090BE5
:105210000D0F1214152E264BF2E7264BF0E7264809
:1052200009E0264807E0104605E01C48401E02E061
:105230001B4800E01B48226981429060A26990608F
:1052400000D301466165FF31F5312165606CFEF7E1
:105250007AFFA97BC806800F07D0012807D0022853
:105260000BD003280CD0FEE7FEE7154800E01548F8
:10527000F063480906D00C2008E07F20C005F7E75E
:105280001148F5E7E87C400900D00620A063F8BD8E
:10529000D3200000A0860100204E00006A1000000C
:1052A000340800001A04000040DA7F38B0E33F3AC7
:1052B00040DAFF3840DA7F392A060100A6410000B3
:1052C000792220397922A0397922A03A416FCC2263
:1052D000C968497811548906890E203001757047D4
:1052E000F0B585B0044601A805F024FA606F6B465E
:1052F000C16802224978197003251F46591C05F020
:1053000032FA6B4620461988C0300490818000260E
:10531000A038039079E00498807B400935D0691C5F
:10532000606FCAB2C16849190B7869460B70511C8D
:10533000CDB2791C05F017FA694608888880691C87
:10534000606FCAB2C16849190B7869460B70511C6D
:10535000CDB2791C05F007FA69460888C880691C37
:10536000606FCAB2C16849190B7869460B70511C4D
:10537000CDB2791C05F0F7F9694608880881224604
:105380009E3201A92046FFF7C1FE691C606FCAB2B8
:10539000C16849190B7869460B70511CCDB2791C54
:1053A00005F0E1F9694608888880691C606FCAB217
:1053B000C16849190B7869460B70511CCDB2791C34
:1053C00005F0D1F969460888C880691C606FCAB2C7
:1053D000C16849190B7869460B70511CCDB2791C14
:1053E00005F0C1F969460888088122467A3201A988
:1053F0002046FFF764FE2046FFF7A4FD616D206A9A
:1054000040182062761C0398F6B214214156B1422E
:1054100081DC616D206A401A206205B0F0BD000099
:10542000F0B58BB0002569460D700D7504462E460B
:105430002F460295049508956A4610210695FFF7B8
:1054400006FE0020694608706A4611212046FFF7D3
:10545000FEFD0020694608706A4612212046FFF7CB
:10546000F6FD0020694608706A461E212046FFF7B7
:10547000EEFD3820694608706A461F212046FFF776
:10548000E6FD4020694608706A4620212046FFF765
:10549000DEFD0020694608706A4621212046FFF79C
:1054A000D6FD4020694608706A4622212046FFF753
:1054B000CEFD0020694608706A4623212046FFF78A
:1054C000C6FD0020694608706A4624212046FFF781
:1054D000BEFDA048FEF74EFE03AA28212046FFF796
:1054E0009BFD03AA013229212046FFF795FD07AA5B
:1054F0002A212046FFF790FD07AA01322B212046E2
:10550000FFF78AFD01AA2C212046FFF785FD01AA9D
:1055100001322D2101E005AA27212046FFF77CFD5D
:105520006846007DC007F6D003AA18212046FFF781
:1055300073FD03AA013219212046FFF76DFD07AA6A
:105540001A212046FFF768FD07AA01321B212046D9
:10555000FFF762FD01AA1C212046FFF75DFD01AAAD
:1055600001321D212046FFF757FD6A460C20105ED0
:10557000042186191C20105E515EC71902986D1C0B
:105580000818EDB20290052DCAD305213046FAF76E
:10559000EFFE0A9005213846FAF7EAFE0990052148
:1055A0000298FAF7E5FE02900120694608706A4603
:1055B00024212046FFF74BFD6648FEF7DBFD03AADA
:1055C00028212046FFF728FD03AA01322921204681
:1055D000FFF722FD07AA2A212046FFF71DFD07AE8F
:1055E0002B212046721CFFF717FD01AA2C21204613
:1055F000FFF712FD01AF2D2120467A1CFFF70CFDAD
:10560000002504E005AA27212046FFF705FD68468E
:10561000007DC007F6D003AA18212046FFF7FCFC46
:1056200003AA013219212046FFF7F6FC07AA1A2126
:105630002046FFF7F1FC721C1B212046FFF7ECFC13
:1056400001AA1C212046FFF7E7FC7A1C1D212046F9
:10565000FFF7E2FC68460C21415E04986D1C0818B7
:10566000049068461C21415E0898EDB20818089025
:1056700068460421415E069808180690052DC6D399
:105680002246CE3210212046FFF7E1FC2246CF32DF
:1056900011212046FFF7DBFC2246D03212212046A2
:1056A000FFF7D5FC2246C7321E212046FFF7CFFC6C
:1056B0002246D2321F212046FFF7C9FC2246D332B0
:1056C00020212046FFF7C3FC2246D4322121204668
:1056D000FFF7BDFC2246C83222212046FFF7B7FC67
:1056E0002246C93223212046FFF7B1FC2246CA32A6
:1056F00024212046FFF7ABFC05210498FAF738FE79
:10570000054605210898FAF733FE04460521069858
:10571000FAF72EFE06460A98401B04F0CBFF05461A
:105720000998001B04F0C6FF04460298801B04F091
:10573000C1FF012D09DC012C07DC012805DC012D4E
:1057400003DB012C01DB012802DA00200BB0F0BDE5
:105750000120FBE7400D0300F8B5044600F039F8DE
:105760002546C0354420287222460027C83222210F
:105770002046FFF76CFC0C2068722246C9322321B8
:105780002046FFF764FC2246AF72CA32232120462E
:10579000FFF75DFC0320A8710126AA1D0C212046FD
:1057A000FFF755FC2246EF72CB322E212046FFF741
:1057B0004EFC206B002802D02046FFF783FB01211E
:1057C000204600F03AF9002802D040346670F8BD57
:1057D000FEE770B5044600217A3004F0A3FF2046AE
:1057E0000021803004F08FFF204600219E3004F01D
:1057F00099FF20460021A43004F085FF0025256292
:10580000A5622046203001460573203005816A1EBE
:105810000A75A563858378200555606CFEF78EFCBC
:10582000206F8560606F856070BD7CB5436F00241C
:105830009C60046E40231B5D002B01D005207CBDC5
:1058400040231954802319430346856E783301950C
:105850000093406F134602462046FFF7E9F97CBDEE
:10586000F8B504468030407F002803D1C120005D98
:10587000002872D027466037387E264625464036B7
:105880002035022812D13078152802D02F2807D0D1
:10589000FEE72046FFF724FD0020C043287502E004
:1058A0002046FFF713FD002030703876387E03283D
:1058B0000BD1001F287500202873606CFEF73EFC9A
:1058C00000203876B08B401CB083287B002819D08C
:1058D00014202856401C21D1B078012600280FD072
:1058E000FEF7E0FF0146206AFFF702F8A065216D90
:1058F000884205D901222F212046FFF796FF0DE0AF
:105900002E750BE00021606CFEF764FC002805D0CA
:105910004320FFF723FC3089401C30811421695655
:1059200000291ADD387E002817D1A06B4843801C5F
:10593000E06312D082B215212046FFF776FF0128DE
:105940000BD1A16A206AFEF7D3FF6062A06A2062D1
:1059500000202873606CFEF7F1FBF8BDF8B5044633
:105960004030407816460F46002802D12046FFF707
:10597000F3FE2046FFF794FA7801E7210840B107CB
:10598000C90E08430421084325468008C03580001D
:10599000E8742246D33220212046FFF758FB8020AE
:1059A00028752246D43221212046FFF750FB20469D
:1059B000FFF7F2FB062228212046FFF736FFF8BD4D
:1059C000FFB504464030407881B00F46002802D130
:1059D0002046FFF7C1FE2046FFF7A6FA7801E7212F
:1059E0000840039925468907C90E08430499800891
:1059F00089078000890F0843C035A8732246002616
:105A0000CE3210212046FFF722FB2246EE73CF3222
:105A100011212046FFF71BFB22462E74D0321221A3
:105A20002046FFF714FB2046FFF7B6FB0E22152198
:105A30002046FFF7FAFE05B0F0BDF8B50027054691
:105A400004466A4601268035C034177000290CD000
:105A50000F21FFF7E1FA68460078682802D02F7717
:105A600027700CE02E77267007E0FFF7D9FC287727
:105A70002670002803D0002E01D00120F8BD0020A0
:105A8000F8BD0000FFB583B01E460F467A300C9D6E
:105A900004F050FE801D04F03EFE0C3004F03BFE8E
:105AA000123004F047FE801D04F035FE0C3004F087
:105AB00032FE04465E48B03C046027666666059880
:105AC000A06630460121FEF7D7FD082002F050F90C
:105AD0000022616EFCF78CFB0D225649E066FCF754
